:100000000C94DB000C9403010C9403010C94030189
:100010000C9403010C9403010C9403010C94030150
:100020000C9403010C9403010C944D0D0C94CB0D16
:100030000C9403010C9403010C9403010C94030130
:100040000C9403010C9403010C9403010C94030120
:100050000C9403010C9403010C9403010C94030D04
:100060000C9403010C9423100C94FD0F0C940301C9
:100070000C9403010C9403010C9403010C940301F0
:100080000C9403010C9403010C9403010C940301E0
:100090000C9403010C9403010C9403010C940301D0
:1000A0000C9403010C9403010C940301080B00024F
:1000B0000202000009040000010202000005240001
:1000C0001001052401010104240206052406000193
:1000D0000705810310004009040100020A00000026
:1000E00007050202400000070583024000000403E8
:1000F000090412010002EF020140501D4F6100018E
:100100000102030141726475696E6F005368696B87
:10011000204E33324200070605040100080A0B0C8A
:100120000D0900000000240027002A002D003000E7
:1001300000000000250028002B002E0031000000E8
:1001400000002300260029002C002F0004040404D2
:10015000040304050202020204030202020206066C
:100160000606060604040202020404040802011042
:1001700040804010204080408008020401804020E0
:1001800010020110801020404020000000020009F1
:100190000F0000030401000C00000000000000003C
:1001A0000000000000000000007E306D79335B5FCE
:1001B000707F7B007E1011241FBECFEFDAE0DEBF20
:1001C000CDBF11E0A0E0B1E0ECE2F9E402C005909F
:1001D0000D92A83AB107D9F726E0A8EAB1E001C02C
:1001E0001D92A13DB207E1F710E0CBEDD0E004C0D5
:1001F0002197FE010E940022CA3DD107C9F70E9443
:10020000B2120C9494240C940000CF93DF931F92AD
:10021000CDB7DEB76983DC01ED91FC910280F381FB
:10022000E02D41E050E0BE016F5F7F4F09950F90D8
:10023000DF91CF91089581508F3008F047C0E82FAB
:10024000F0E0EB5DFE4F0C940022420146013401C8
:100250003A013E0166016601660149014F01530101
:1002600057015D0166016101809180008F77809365
:1002700080000895809180008F7DF9CF809180006B
:10028000877FF5CF84B58F7784BD089584B58F7D42
:10029000FBCF809190008F7780939000089580919C
:1002A00090008F7DF9CF80919000877FF5CF80916E
:1002B000C0008F778093C00008958091C0008F7D2B
:1002C000F9CF8091C200877F8093C2000895CF93B9
:1002D000DF93282F30E0F901E657FE4F8491F901B2
:1002E000E559FE4FD491F901E45BFE4FC491CC2354
:1002F000A1F081110E941B01EC2FF0E0EE0FFF1F17
:10030000E25CFE4FA591B491EC91ED2381E090E089
:1003100009F480E0DF91CF91089580E090E0FACF7A
:100320001F93CF93DF93282F30E0F901E657FE4F5C
:100330008491F901E559FE4FD491F901E45BFE4F38
:10034000C491CC23A9F0162F81110E941B01EC2F20
:10035000F0E0EE0FFF1FE05DFE4FA591B4918FB767
:10036000F894EC91111108C0D095DE23DC938FBF77
:10037000DF91CF911F910895DE2BF8CFCF93DF93BC
:1003800090E0FC01E559FE4F2491845B9E4FFC01F7
:1003900084918823C9F090E0880F991FFC01EE5DDD
:1003A000FE4FA591B491FC01E05DFE4FC591D49143
:1003B00061110DC09FB7F8948C91209582238C9386
:1003C0008881282328839FBFDF91CF9108956230D1
:1003D00051F49FB7F8943C91822F809583238C939E
:1003E000E8812E2BEFCF8FB7F894EC912E2B2C9326
:1003F0008FBFEACF3FB7F8948091D1039091D20399
:10040000A091D303B091D40326B5A89B05C02F3F7C
:1004100019F00196A11DB11D3FBFBA2FA92F982F2A
:100420008827BC01CD01620F711D811D911D42E025
:10043000660F771F881F991F4A95D1F708958F92ED
:100440009F92AF92BF92CF92DF92EF92FF924B01B9
:100450005C010E94FA016B017C010E94FA016C1997
:100460007D098E099F09683E734081059105A8F3B7
:1004700021E0821A9108A108B10888EEC80E83E035
:10048000D81EE11CF11C81149104A104B10429F7C8
:10049000FF90EF90DF90CF90BF90AF909F908F90A4
:1004A00008952FB7F8946091CD037091CE03809199
:1004B000CF039091D0032FBF08950E945102609303
:1004C000D5037093D6038093D7039093D8031092EB
:1004D000B2041092210608958093E9008091F20001
:1004E000882319F08AE38093E800089583E00C9450
:1004F0006C024091B6015091B7012091B401309146
:10050000B50142175307B4F49091E8009570E1F3F8
:100510009091E80092FD19C08093F1008091B6019E
:100520009091B70101968F739927892B19F48EEF5B
:100530008093E8008091B6019091B7010196909365
:10054000B7018093B60181E0089580E00895EF92AD
:10055000FF920F931F93CF93DF93F82E192FE62E60
:10056000042F81E0860F880F0E94790283E00E94A9
:100570007902CF2DD12FEC0EFD2EF11CCE15DF050B
:10058000B9F007FF13C0FE0184910E947902182F71
:1005900080E00E947902812321968111EFCFDF91C3
:1005A000CF911F910F91FF90EF9008958881EDCF2B
:1005B00081E0F5CFDF92EF92FF920F931F93CF93DD
:1005C000DF93D82E8A01EB017B01E40EF51ECE15D8
:1005D000DF0559F0D7FE12C0FE0184910E94790216
:1005E00021968111F4CF0FEF1FEFC801DF91CF915A
:1005F0001F910F91FF90EF90DF9008958881EECFCB
:100600002FB7F89487708093E9009091E800892FC4
:10061000807295FF04C09091F20080E4891B2FBF87
:10062000089583E00E94000390E008957F928F92E6
:100630009F92AF92BF92CF92DF92EF92FF920F9371
:100640001F93CF93DF93C82E8B017A018091BD0158
:10065000811110C08FEF9FEFDF91CF911F910F910C
:10066000FF90EF90DF90CF90BF90AF909F908F90D2
:100670007F9008958091BB0180FF05C08091E000CC
:1006800082608093E000CE2DDF2DD12C8AEFB82E32
:100690008C2D8770982E8C2D8072882E8C2D8074D6
:1006A000782E9AE3A92E209719F4DD2009F452C080
:1006B0008C2D0E94000381110AC0BA94BB2051F214
:1006C00061E070E080E090E00E941F02ECCF8C17A8
:1006D0001D0611F00CF08C2F9FB7F8949092E90052
:1006E0002091E80025FD02C09FBFDDCF282F30E01C
:1006F000C21BD30B882029F08150A0F01092F1008A
:10070000FBCFF801C7FC0AC0815050F041914093E3
:10071000F100FACF44914093F10031968150D0F727
:10072000020F131FDD2021F0A092E800D12CDCCFB6
:100730008091E80085FD07C0A092E800DD24D394F5
:10074000209791F2F3CF209779F6772069F2A09263
:10075000E800CACF5D9884E68093BA01C7017CCFD8
:10076000CF93DF93EC0180910B01882331F083E07C
:100770000E9416031816190634F081E090E09B835E
:100780008A8380E090E0DF91CF9108959091BD0140
:10079000992319F13FB7F89487708093E90080910D
:1007A000F20090E0481759070CF4CA01282FFB010A
:1007B00054E6215038F028985093B9014091F10047
:1007C0004193F7CF009739F02091F200211103C037
:1007D0002BE62093E8003FBF08958FEF9FEF089529
:1007E0000F931F93CF93DF931F92CDB7DEB78C018A
:1007F000FC018485958597FF0FC041E050E0BE0164
:100800006F5F7F4F82E00E94C603019771F4898178
:1008100090E0F80195878487F801848595850F908D
:10082000DF91CF911F910F9108958FEF9FEFF1CF3F
:10083000CF93DF931F92CDB7DEB7FC0184859585FA
:1008400097FD08C02FEF3FEF358724870F90DF918A
:10085000CF91089541E050E0BE016F5F7F4F82E08D
:100860000E94C603019719F4898190E0EFCF8FEFC2
:100870009FEFECCF9FB7F89487708093E900809149
:10088000F2009FBF0895FC018485958597FD06C001
:1008900082E00E943A0490E00196089582E00E946E
:1008A0003A0490E00895615030F02091F100FC018D
:1008B00020830196F8CF289884E68093B9010895A3
:1008C000AF92BF92CF92DF92EF92FF920F931F935E
:1008D000CF93DF936C017B018B01040F151FEB019C
:1008E0005E01AE18BF08C017D10759F06991D60153
:1008F000ED91FC910190F081E02DC6010995892BC5
:1009000079F7C501DF91CF911F910F91FF90EF9083
:10091000DF90CF90BF90AF9008958091AC0181118E
:100920000DC082E08093A80184E08093A901109219
:10093000AB011092AA0181E08093AC0188EA91E0BA
:1009400008950F931F93CF93DF931F92CDB7DEB718
:1009500082E0898342E450E06CEA70E080E80E9423
:10096000DA020E948D04DC0112960D911C91011592
:10097000110589F0D801ED91FC910280F381E02D01
:10098000BE016F5F7F4FC801099597FD04C0F80154
:1009900000851185ECCF89810F90DF91CF911F9158
:1009A0000F910895FC01538D448D252F30E0842F45
:1009B00090E0821B930B541710F0CF960895019787
:1009C0000895FC01918D828D981761F0A28DAE0F74
:1009D000BF2FB11D5D968C91928D9F5F9F73928FFB
:1009E00090E008958FEF9FEF0895FC01918D828D27
:1009F000981731F0828DE80FF11D858D90E00895F4
:100A00008FEF9FEF0895FC01918D228D892F90E04B
:100A1000805C9F4F821B91098F739927089588E40A
:100A200095E00E94030521E0892B09F420E0822F44
:100A3000089580E090E0892B29F00E940F05811134
:100A40000C9400000895FC01A48DA80FB92FB11DCE
:100A5000A35ABF4F2C91848D90E001968F739927F4
:100A6000848FA689B7892C93A089B1898C918274CF
:100A70008C93938D848D981306C00288F389E02DA2
:100A800080818F7D80830895EF92FF920F931F9353
:100A9000CF93DF93EC0181E0888F9B8D8C8D981331
:100AA00019C0E889F989808185FF14C09FB7F8943F
:100AB000EE89FF896083E889F98980818274808367
:100AC0009FBF81E090E0DF91CF911F910F91FF9048
:100AD000EF900895F62E0B8D10E00F5F1F4F0F73F0
:100AE0001127E02E8C8D8E110CC00FB607FCFACFAB
:100AF000E889F989808185FFF5CFCE010E94230521
:100B0000F1CFEB8DEC0FFD2FF11DE35AFF4FF0827B
:100B10009FB7F8940B8FEA89FB8980818062CFCFE1
:100B2000CF93DF93EC01888D8823B9F0AA89BB8924
:100B3000E889F9898C9185FD03C0808186FD0DC00F
:100B40000FB607FCF7CF8C9185FFF2CF808185FF30
:100B5000EDCFCE010E942305E9CFDF91CF9108951B
:100B600090E080E0089580E008950F931F93CF9365
:100B7000DF93CDB7DEB7C456D1090FB6F894DEBF08
:100B80000FBECDBFFC01DB019C919E5F9C939E013B
:100B9000295F3F4F8AE5D9011D928A95E9F788E0E0
:100BA00089838BE08A8322E02C8391E09D839E835E
:100BB00039E0398764E06A879E879F873A8B44E2F1
:100BC0004B8B9C8BA0E0B1E0BE8BAD8B09E010E0BD
:100BD000188F0F8B998F3B8F6C8F2F8F98A353E0BB
:100BE00059A387E08CA34DA39EA3B8A7AFA3A1E40C
:100BF000B0E0BAA7A9A786E08BA74CA72DA79EA710
:100C00009FA789AB4AAB2BAB2CAB2DAB3FAB48AF0F
:100C100059AF9AAF5BAF9CAF2DAF9EAF21963FAF60
:100C2000219722964FAF229723965FAF2397249662
:100C30002FAF249725966FAF259726969FAF2697BF
:100C400027969FAF279728969FAF28972A963FAF62
:100C50002A9745E02B964FAF2B972D962FAF2D97C8
:100C600060E470E02F967FAF6EAF2F9763964FAF23
:100C7000639785E264968FAF649765969FAF65979B
:100C800066969FAF669767969FAF679768963FAFE8
:100C9000689769964FAF69976B962FAF6B976D9674
:100CA0007FAF6EAF6D97A1964FAFA197A2968FAF12
:100CB000A297A3969FAFA397A4969FAFA497A5963C
:100CC0005FAFA59792819B839B879F5F9A8F9D8F34
:100CD00083812C968FAF2C978F5F80686A968FAF39
:100CE0006A9744E650E0BE016F5F7F4F80E00E944C
:100CF000DA02CC59DF4F0FB6F894DEBF0FBECDBF7E
:100D0000DF91CF911F910F9108950F931F93CF9370
:100D1000DF93EC0188810E9467019B8B8A8B288975
:100D200039898217930751F00E9451026C8B7D8B99
:100D30008E8B9F8B8A899B89998B888B0E9451020D
:100D40000C891D892E893F89601B710B820B930BC7
:100D50000A811B812C813D816017710782079307EF
:100D600040F08E859F859D878C878A899B899F8788
:100D70008E872C853D858E859F852817390781F0C4
:100D80004A855B854230510581F48E819F81A8851B
:100D9000B9850196A11DB11D8E839F83A887B98750
:100DA000DF91CF911F910F9108954115510531F4B5
:100DB00021303105A9F7892B41F3F2CF413051059C
:100DC00079F7232B69F7019759F7DFCF87FF0AC01F
:100DD0009CE0980F923030F08D3F21F0803F18F466
:100DE000807F089580E00895982F9F7E282F2F7C84
:100DF000203839F0803E29F081E0903C19F080E005
:100E0000089581E00895CF93DF93EC01E881F981A3
:100E1000309711F0CB9609958CAD823F09F49EC0B6
:100E200090F5803C09F486C090F4803909F454C0F0
:100E300030F4803809F445C0DF91CF910895803AAD
:100E400009F475C0803BC1F7EA85FB853CC0803E54
:100E500009F459C058F4803D79F7EE85FF85309745
:100E600059F36DAD8BADDF91CF910994803F09F4BB
:100E700064C0813F09F7EC89FD893097E9F28DADB7
:100E8000DF91CF9109948A3F91F180F4863F09F474
:100E900077C028F4833F81F6E88DF98DEECF883F47
:100EA000F1F0893F49F6E8A1F9A11BC08C3F29F177
:100EB00008F18E3F29F18F3F09F0BECFE8A5F9A5D3
:100EC00010C0EC81FD81309709F4B6CF4EAD6DAD09
:100ED0008BADDF91CF910994EE81FF81F4CFEC8D42
:100EE000FD8D309709F4A8CFDF91CF910994EE8D55
:100EF000FF8DF7CFEAA1FBA1F4CFECA1FDA1F1CFCB
:100F0000EEA1FFA1EECFE889F989309709F494CFDB
:100F10006EAD20E8629FB001112460787F738DADC3
:100F20008F77682B70528BADDF91CF910994E88554
:100F3000F985C9CFEC85FD8592CFEA89FB89309789
:100F400009F47ACF6DAD7EAD6138710510F060E8BF
:100F500070E0CE01CF96DF91CF910994EE89FF89A1
:100F6000309709F469CF8EAD20E8829FC00111242B
:100F700080789F732DAD2F77822BDF91CF910994CD
:100F8000EA8DFB8DAECFDC018D919C91DC01ED9162
:100F9000FC910190F081E02D09941F93CF93DF9392
:100FA0002150203118F587FF21C0D42F162FC82FCC
:100FB000622F682B8091A2049091A3040E94C30722
:100FC000612F6F778091A2049091A3040E94C307C0
:100FD000CF7EC03C59F06D2F6F778091A204909125
:100FE000A304DF91CF911F910C94C307DF91CF91A0
:100FF0001F9108956D3F48F46A3F10F4683F39F43B
:10100000FC01808191810C94C3076E3FC8F708955D
:10101000813E10F40C94CD07883F28F0682F82EAB7
:1010200094E00C94FA0708950F931F93CF93DF93E6
:1010300000D000D0CDB7DEB7FC012089918982892C
:10104000378539832A839B838C830AE214E0F80175
:10105000838144E050E0BE016F5F7F4F8F5F0E944D
:101060001603F80183818F5F0E946C020F900F902E
:101070000F900F90DF91CF911F910F9108950F93D3
:101080001F93CF93DF9300D000D0CDB7DEB78C0194
:10109000262FFC01848195813681303FD9F000975D
:1010A00011F4208B04C08130910581F4618BF8012B
:1010B000848195810196958384830F900F900F9082
:1010C0000F90DF91CF911F910F910895029779F7BB
:1010D000628BEDCF603F49F48389F0E18F9FC001BF
:1010E00011248460F8018787DCCF63E070E00E9400
:1010F000EC21AC01273F39F493899295907F85E0EC
:10110000840F982B9787F8014115510521F4208B06
:10111000128A118ACCCF4130510519F4218B128AE1
:10112000C6CF228B273F19F2908981893785398371
:101130009A838B832C8380912D0444E050E0BE0180
:101140006F5F7F4F8F5F0E94160380912D048F5F2A
:101150000E946C02ACCFDC0116966C9316975396E6
:101160008C91539720E1829FC0011124603FE8F4E5
:10117000E62FE295EF70E750FF0BEE0FFF1FE75CE5
:10118000FE4F9181892B1F968C931F9752961C922C
:10119000529751961C92519750961C9250971596C3
:1011A0001C921E92149781E008958460ECCF0F93F7
:1011B0001F93CF93DF93DFEFD20FD03198F587FFE6
:1011C00031C0142F062FC82F682F809111069091DF
:1011D00012060E94AB08882329F16D2F6C2B809199
:1011E0001106909112060E943F08602F6F77809140
:1011F0001106909112060E943F08CF7EC03C41F03C
:10120000612F6F7780911106909112060E943F081E
:101210008091110690911206DF91CF911F910F914D
:101220000C941408DF91CF911F910F9108950F93A3
:101230001F93CF936D3FD8F46A3F10F4683FC9F411
:10124000C62F8C01FC01808191810E94AB0888230C
:1012500081F06C2FF801808191810E943F08F80194
:1012600080819181CF911F910F910C9414086E3F52
:1012700038F7CF911F910F910895813E10F40C948F
:10128000D708883F28F0682F81E196E00C94170971
:1012900008950F931F93CF93DF93082F162FD42F0A
:1012A000C8E06D2F661F6627661F802F0E94900181
:1012B000DD0F61E0812F0E94900160E0812F0E948C
:1012C0009001C15071F7DF91CF911F910F91089557
:1012D0000F931F93CF93DF9300D0CDB7DEB78C0170
:1012E00069834A8360E0FC0182810E949001498108
:1012F000F801648180810E9449094A81F801648172
:1013000080810E94490961E0F80182810F900F906D
:10131000DF91CF911F910F910C94900140E8682FBD
:1013200086E694E00E9468090E94510260936E0470
:1013300070936F04809370049093710408950F93D9
:101340001F93CF93DF93FC01EC57FF4F20812223A3
:1013500051F1EC01688161506F708981682B809137
:10136000A2049091A3040E94C3078981803F11F1D8
:101370008E010B571F4FF80180819181029738F041
:101380006A818091A2049091A3040E94C307F8018E
:1013900080819181039738F06B818091A2049091B4
:1013A000A3040E94C30782E0DF91CF911F910F91A8
:1013B0000C948E0960EF8091A2049091A3040E9486
:1013C000C3078E01A8014C1B5D0B8091A204909174
:1013D000A3040F5F1F4F2A813B812138310510F094
:1013E00020E830E04217530728F4F80163810E9497
:1013F000C307E8CF67EFD5CF2091B4042E3F51F05B
:10140000FC0120814381628181810E943D0982E04B
:101410000C948E0908950F931F93CF93DF938C0143
:10142000C1E0D0E0F801868197818C179D073CF0E0
:1014300040E06C2FC8010E9468092196F3CFDF912C
:10144000CF911F910F910895AF92BF92CF92DF92EB
:10145000EF92FF920F931F93CF93DF93CDB7DEB739
:10146000A2970FB6F894DEBF0FBECDBF2AE0AE0143
:101470004F5F5F4F5A010E94E91FF5010190002064
:10148000E9F731978F010A191B09B8016F5F7F4F88
:1014900090E080E00E94C7237C01009761F1FC018D
:1014A0001082B5010E948D24D12CC12CC016D1060A
:1014B00029F1F701EC0DFD1DE114F10421F4109266
:1014C000D903E9EDF3E0808189831A824AE050E094
:1014D00070E060E0C5010E94C91EFB01E755FE4FA8
:1014E0004491602F6C1986E694E00E946809FFEF32
:1014F000CF1ADF0ADBCF10E000E0D6CFE114F10411
:1015000099F0C701A2960FB6F894DEBF0FBECDBF0B
:10151000DF91CF911F910F91FF90EF90DF90CF90CF
:10152000BF90AF900C943E23A2960FB6F894DEBF06
:101530000FBECDBFDF91CF911F910F91FF90EF9024
:10154000DF90CF90BF90AF900895CF93C82F86E6DD
:1015500094E00E940B0A6C2F70E090E080E00E9403
:10156000240A47E662E086E694E00E9468090E9449
:10157000510260936E0470936F0480937004909393
:101580007104CF910895CF93C82F86E694E00E940E
:101590000B0A6C2F70E090E080E00E94240AC436B1
:1015A00078F08C2F6AE00E94E021E92FF0E0E75903
:1015B000FE4F4081406861E086E694E00E94680941
:1015C0000E94510260936E0470936F0480937004C4
:1015D00090937104CF910895FF920F931F93CF932F
:1015E000DF93D82F162FC42FF22E8091C803202FFF
:1015F0006D2F8823E9F080EB0E94CD07202F4F2D1F
:10160000612F80EB0E94CD07202F4C2F6D2F80EB98
:101610000E94D708202F4F2D612F80EB0E94D70802
:101620008C2FDF91CF911F910F91FF900C94C30AE3
:1016300080EB0E94CD07202F4C2F6D2FEECFCF9245
:10164000DF92EF92FF921F93CF93DF93182F82E8E0
:10165000189F6001112487E4E82E83E0F82EC1E092
:10166000D0E0C6018C0F9D1F0E942821F7018193B5
:101670007F012196C338D105A1F710934603DF916E
:10168000CF911F91FF90EF90DF90CF90089585301C
:1016900010F40C941F0B0895862F653010F40C94F1
:1016A000470B08950F931F93CF93C82F882379F189
:1016B0001092CB030E9451020091D5031091D603E2
:1016C0002091D7033091D803601B710B820B930BD1
:1016D0006F3F71058105910588F48091C9038823C6
:1016E00019F180914603CC23C9F0843098F48F5FC0
:1016F0000E94470B809146030E94A50A83E08093D5
:1017000021068093B204CF911F910F9108951092FA
:10171000CA03D0CF80E00E941F0BECCF882311F0CA
:101720008150E6CF84E0F7CF80914703CC23C9F006
:101730008031A8F48F5F809347036091470370E086
:1017400090E080E00E94240A0E94510260936E049F
:1017500070936F048093700490937104CFCF81E0F5
:10176000EACF823010F08150E6CF80E1E4CFFF92E3
:101770000F931F93CF93DF93EC01F62E088119810D
:10178000C8010E942821F81621F06F2DC8010E947F
:101790003021CE01DF91CF911F910F91FF900895DD
:1017A000AF92BF92CF92DF92EF92FF920F931F936F
:1017B000CF93DF9300D0CDB7DEB7FC016430710565
:1017C00008F40AC18181803209F006C1828181302A
:1017D000F9F483818032E0F44581548190E09C01EA
:1017E000220F331F220F331F295B3C4FD901119663
:1017F0005C93119712964C93880F991F880F991F2D
:10180000DC01A55BBC4F1C9280E8D90113968C9338
:101810008281823001F583818032E8F446815581EE
:10182000648190E09C01220F331F220F331F295B3C
:101830003C4FD90111966C93119712965C93880FC7
:10184000991F880F991FDC01A55BBC4F1C92406853
:10185000D90113964C938281833001F583818032C4
:10186000E8F45581448190E09C01220F331F220F40
:10187000331F295B3C4FD90111965C931197129647
:101880004C93880F991F880F991FDC01A55BBC4FF3
:1018900081E08C9380E8D90113968C9382818B3000
:1018A000D1F483818032B8F490E09C01220F331F81
:1018B000220F331F295B3C4FD90111961C92880FD0
:1018C000991F880F991FDC01A55BBC4F1C9281E911
:1018D000D90113968C9382818E3039F481E0938103
:1018E000911101C080E08093C8038F01828185300F
:1018F00009F05DC08381853008F059C0B2E88B9F44
:10190000C001112429ECA22E23E0B22E37E4C32E0D
:1019100033E0D32EFC01E754F3407F01D6016D91F3
:101920006D01C7018A0F9B1F9A838983CE0101969F
:101930000E94B70BAC14BD0489F786E694E00E94C0
:101940000B0A4BE562E086E694E00E9468094CE1F0
:1019500061E086E694E00E9468096CE271E080E054
:1019600090E00E941F024CE961E086E694E00E944C
:1019700068096CE271E080E090E00E941F024CE197
:1019800061E086E694E00E9468096CE271E080E024
:1019900090E00E941F024CE961E086E694E00E941C
:1019A00068096CE271E080E090E00E941F02F8019B
:1019B0008281863019F483810E94470BD8011296E8
:1019C0008C911297893041F413968C919FEF980F68
:1019D000903110F4809347030F900F90DF91CF91D7
:1019E0001F910F91FF90EF90DF90CF90BF90AF903D
:1019F000089584E0E3EAF1E0DB0101900D928A951D
:101A0000E1F784E008951F920F920FB60F92112410
:101A10002F933F938F939F93AF93BF938091CD0369
:101A20009091CE03A091CF03B091D0033091CC031D
:101A300023E0230F2D3758F50196A11DB11D2093EA
:101A4000CC038093CD039093CE03A093CF03B093A8
:101A5000D0038091D1039091D203A091D303B09190
:101A6000D4030196A11DB11D8093D1039093D2039D
:101A7000A093D303B093D403BF91AF919F918F9163
:101A80003F912F910F900FBE0F901F90189526E851
:101A9000230F0296A11DB11DD2CF1F920F920FB638
:101AA0000F9211242F933F934F935F936F937F93E4
:101AB0008F939F93AF93BF93CF93EF93FF93C09177
:101AC000E1008091E100837F8093E100C3FF0FC0BC
:101AD0001092E90081E08093EB001092EC0082E329
:101AE0008093ED001092BD0188E08093F000C2FF6A
:101AF0001BC083E00E946C028091BA01882341F0F0
:101B00008091BA0181508093BA01811101C05D9A20
:101B10008091B901882341F08091B901815080936F
:101B2000B901811101C0289AC4FF23C08091E2004D
:101B30008E7E81608093E2008091E1008F7E8093B1
:101B4000E1008091BB018E7E80618093BB01FF919B
:101B5000EF91CF91BF91AF919F918F917F916F91B5
:101B60005F914F913F912F910F900FBE0F901F905B
:101B70001895C0FFECCF8091E2008E7E806180934B
:101B8000E2008091E1008E7E8093E1008091BB01B4
:101B90008E7E8160DACF1F920F920FB60F921124C2
:101BA000CF92DF92EF92FF920F931F932F933F9369
:101BB0004F935F936F937F938F939F93AF93BF9355
:101BC000EF93FF93CF93DF93CDB7DEB76C97DEBF74
:101BD000CDBF1092E9008091E80083FF25C068E046
:101BE000CE0145960E94530482EF8093E8008D89D0
:101BF00087FF39C09091E80090FFFCCF982F907636
:101C000009F034C19E894F89588D2F89F88C911124
:101C100031C0803861F58091BC018093F100109251
:101C2000F1008EEF8093E8006C960FB6F894DEBF5B
:101C30000FBECDBFDF91CF91FF91EF91BF91AF91DB
:101C40009F918F917F916F915F914F913F912F91D4
:101C50001F910F91FF90EF90DF90CF900F900FBEEC
:101C60000F901F9018959EEF9093E800C7CF1092A9
:101C7000F100D5CF913059F48111D3CF41305105C6
:101C800081F68091BC018D7F8093BC01CACF9330D7
:101C900049F48111C6CF4130510519F68091BC013C
:101CA0008260F2CF953041F48091E80080FFFCCF54
:101CB00020682093E300B5CF963009F0A9C00B8DC2
:101CC0001C8D22E01092E9001092B7011092B6012B
:101CD000F2122EC01092B5011092B4010E94A1041C
:101CE0001F8299E09983FA8291E09E8390EA988717
:101CF0009AEF99872091B6013091B701275F3F4F46
:101D00003C832B838D831092E9001092B7011092CF
:101D1000B6011093B5010093B40149E050E0BE0153
:101D20006F5F7F4F80E00E94DA020E94A10479CFAA
:101D30001093B5010093B4010E948D04DC0112964A
:101D40000D911C910115110509F451C1D801ED91B6
:101D5000FC910480F581E02DBE016B5E7F4FC801D0
:101D60000995009709F03EC1F80100851185EACF79
:101D7000F3E0FF120EC08F89882309F440C082303F
:101D800061F440E869E08CE091E00E94A7028111D3
:101D900048CF81E28093EB0047CF813029F440E8BF
:101DA00067E084E091E0F1CF833099F70E948D04E1
:101DB000DC011296ED90FC908E010F5F1F4F6801C1
:101DC000E114F10479F0D701ED91FC910680F781DF
:101DD000E02DB801C7010995080F111DF701E08436
:101DE000F184EECFD8011C92F60101900020E9F7B2
:101DF0003197BF016C197D0940E0C601C6CF6EEE78
:101E000070E0FB01449150E080E80E94DA0209CFC3
:101E1000973009F4BECF983021F481E08093F1002F
:101E200000CF993009F0FDCE837009F0B2CFEDE01C
:101E3000F1E081E031E096E32191222371F080937B
:101E4000E9003093EB00DF0111972C912093EC0017
:101E50009093ED008F5F873079F78EE78093EA00EB
:101E60001092EA008F898093BD01DBCE8B8D9C8D13
:101E70001092E9001092B7011092B6019093B5014B
:101E80008093B401898D811192C08E899D89913A88
:101E900049F4813209F07DCF47E050E064E071E021
:101EA00080E0B3CF913209F074CF833269F48F8927
:101EB000988DB0E0A0E08093000190930101A09381
:101EC0000201B0930301ADCE803269F48091E80045
:101ED00082FFFCCF67E084E091E00E9453048BEF27
:101EE0008093E8009ECE823209F09BCE8F8980934A
:101EF0000B01EEEFFFE7859194918B3F9C4D51F1E3
:101F0000E0E0F8E08091040190910501A0910601C4
:101F1000B0910701803B9440A105B105F1F4809197
:101F20000B0180FD1AC0EE3F8AE0F80789F587E7CC
:101F300097E791838083809160008093B80188E166
:101F40009BE00FB6F894A895809360000FBE909325
:101F5000600067CEEEEFFAE0D5CF808191818737C0
:101F6000974709F05ECEA8958091600088618093C4
:101F700060008091B80180936000EE3F2AE0F20794
:101F800089F08091FE0A9091FF0A9183808349CE67
:101F9000808191818737980751F29093FF0A80934F
:101FA000FE0AC5CF1092FF0A1092FE0A3ACE0E9496
:101FB0008D04DC0112960D911C910115110509F497
:101FC000E8CED801ED91FC910190F081E02DBE01A9
:101FD0006B5E7F4FC8010995811123CEF801008502
:101FE0001185EBCF181619060CF41BCED2CEF1E0FA
:101FF000FF12BECE62EF70E004CF1F920F920FB6B9
:102000000F9211242F933F934F935F936F937F937E
:102010008F939F93AF93BF93EF93FF9388E495E0E3
:102020000E942305FF91EF91BF91AF919F918F91F6
:102030007F916F915F914F913F912F910F900FBEC4
:102040000F901F9018951F920F920FB60F921124A8
:102050002F938F939F93EF93FF93E0915805F09107
:1020600059058081E0915E05F0915F0582FD1BC0FE
:102070009081809161058F5F8F7320916205821737
:1020800041F0E0916105F0E0E85BFA4F958F8093B5
:102090006105FF91EF919F918F912F910F900FBE4E
:1020A0000F901F9018958081F4CFCF93DF93EC01B0
:1020B000862F688379831A821B821C821D821E826E
:1020C0001F82188619861B861A8662E00E94BE014E
:1020D00088810E9467019D878C8788810E946701A3
:1020E0009F878E8788810E946701998B888B1C8AC5
:1020F0001D8A1E8A1F8ADF91CF910895CF93DF93A7
:102100001092DD031092DC0388EE93E0A0E0B0E0D3
:102110008093DE039093DF03A093E003B093E10389
:1021200027E731E03093DB032093DA032FEF3FEF13
:102130003093E7032093E60310924B0510924A0573
:1021400080934C0590934D05A0934E05B0934F0599
:1021500089E891E090934905809348058DEC90E0E3
:1021600090935505809354058CEC90E0909357051F
:102170008093560588EC90E090935905809358051C
:1021800089EC90E090935B0580935A058AEC90E08F
:1021900090935D0580935C058EEC90E090935F05D5
:1021A00080935E051092610510926205109263059E
:1021B0001092640582E080932E0480932F0484E3C0
:1021C00094E0909331048093300410923304109281
:1021D00032048BE991E090932B0480932A0480E8E9
:1021E0008093340481E8809335040E948D04FC01BF
:1021F000818190912E04482F490F5527551F483053
:1022000051059CF5A281B381109709F52AE234E0CB
:1022100033832283208120932C0480932D0480918A
:102220002F04820F808320913004A22FB0913104BB
:102230008A2F821B8917C8F481813D91C82FD0E075
:10224000C45FDE4F38838F5F8183F2CFD901189648
:102250002D913C91199721153105C1F72AE234E0FF
:1022600019963C932E931897D5CF1092CA061092C8
:10227000E8051092E7051092EA051092E905109220
:10228000EC051092EB051092EE051092ED05109200
:10229000F0051092EF051092F2051092F1051092E0
:1022A000F4051092F3051092F6051092F5051092C0
:1022B000F8051092F7051092FA051092F9051092A0
:1022C000FC051092FB051092FE051092FD05109280
:1022D00000061092FF05109202061092010610925D
:1022E000040610920306109206061092050610923C
:1022F00008061092070610920A061092090610921C
:102300000C0610920B0610920E0610920D061092FB
:10231000100610920F0687EB96E0909312068093BA
:1023200011061092130610921406109215061092C0
:102330001A061092190610921C0610921B068FEFB7
:102340009FEF90931E0680931D0690932006809326
:102350001F0623E0209321061092220610922306E6
:1023600010922406109225061092A60620E8E6E2B6
:10237000F6E0DF01322F1D923A95E9F71092A90697
:102380001092AA061092AB061092AC061092AD06FF
:102390001092AE061092AF061092B0061092B106DF
:1023A0001092B2061092B3061092B4061092B506BF
:1023B0001092B60648E455E05093E6054093E505D3
:1023C000109279041092780410927B0410927A048F
:1023D00010927D0410927C0410927F0410927E046F
:1023E000109281041092800410928304109282044F
:1023F000109285041092840410928704109286042F
:10240000109289041092880410928B0410928A040E
:1024100010928D0410928C0410928F0410928E04EE
:1024200010929104109290041092930410929204CE
:1024300010929504109294041092970410929604AE
:10244000109299041092980410929B0410929A048E
:1024500010929D0410929C0410929F0410929E046E
:102460001092A1041092A00445EE55E05093A304ED
:102470004093A2041092A4041092A5041092A60402
:102480001092AB041092AA041092AD041092AC0406
:102490009093AF048093AE049093B1048093B00402
:1024A00083E08093B2041092B3041092B4041092AB
:1024B000B5041092B60410923705E7EBF4E0DF01A3
:1024C0001D922A95E9F710923A0510923B05109259
:1024D0003C0510923D0510923E0510923F0510926A
:1024E000400510924105109242051092430510924A
:1024F000440510924505109246051092470580E16B
:1025000090E090936704809366048AE090E0909353
:102510006904809368048FE090E090936B0480934B
:102520006A0461E080E10E94BE0161E0809168047C
:102530000E94BE0161E080916A040E94BE0161E0D8
:10254000809168040E94900165E170E08EE494E05F
:102550000E94551064E170E086E394E0DF91CF9132
:102560000C945510CF93DF93CDB7DEB7C45AD10981
:102570000FB6F894DEBF0FBECDBF789484B58260ED
:1025800084BD84B5816084BD85B5826085BD85B517
:10259000816085BD80916E00816080936E00109295
:1025A0008100809181008260809381008091810010
:1025B00081608093810080918000816080938000A1
:1025C0008091910082608093910080919100816060
:1025D0008093910080919000816080939000809121
:1025E000C10084608093C1008091C10082608093AB
:1025F000C1008091C10081608093C1008091C300BF
:1026000081608093C3008091C00082608093C0008D
:102610008091C20081608093C20080917A008460C2
:1026200080937A0080917A00826080937A00809112
:102630007A00816080937A0080917A00806880932C
:102640007A001092BD011092BC011092BB018091E2
:10265000D70081608093D70080EA8093D80089B545
:10266000806189BD89B5826089BD09B400FEFDCF56
:1026700061E070E080E090E00E941F028091D8004D
:102680008F7C80618093D8008091E000807F809370
:10269000E0008091E1008E7E8093E1008DE08093E8
:1026A000E200559A209A40E06AE086E694E00E94B3
:1026B000680982E090E090936D0480936C0440E0A0
:1026C0006FE086E694E00E94680941E06BE086E6F0
:1026D00094E00E94680940E069E086E694E00E9488
:1026E000680986E694E00E940B0A41E06CE086E609
:1026F00094E00E94680982E08093720483E08093F2
:10270000730484E08093740485E08093750426E765
:10271000E22E24E0F22E02E714E061E0D8018D9170
:102720008D010E94BE01E016F106B9F76AE070E083
:1027300080E090E00E941F0288E08093760460E0D1
:102740000E94BE0189E08093770460E00E94BE0190
:1027500061E081E00E94BE0161E081E00E949001A1
:1027600061E081E10E94BE0162E085E10E94BE015C
:1027700062E084E10E94BE0160E088E00E94BE0148
:1027800060E089E00E94BE0182E390E0A0E0B0E05A
:102790008093500490935104A0935204B093530437
:1027A0008093380490933904A0933A04B0933B0487
:1027B00085E10E946701892B91F460E081E10E942C
:1027C00090010E945102603A7F408105910510F00E
:1027D0000C94A91E85E10E946701892B91F38DEF6E
:1027E00093E00E942821082F8EEF93E00E94282179
:1027F000182F8FEF93E00E942821033029F4153021
:1028000019F4882309F453C105E010E061E081E187
:102810000E9490016CE271E080E090E00E941F0253
:1028200060E081E10E9490016CE271E080E090E064
:102830000E941F020150110949F713E086E694E057
:102840000E940B0A40E162E086E694E00E9468097B
:1028500064E670E080E090E00E941F0286E694E06B
:102860000E940B0A48E162E086E694E00E94680953
:1028700064E670E080E090E00E941F0286E694E04B
:102880000E940B0A4CE162E086E694E00E9468092F
:1028900064E670E080E090E00E941F0286E694E02B
:1028A0000E940B0A4DE062E086E694E00E9468090F
:1028B00064E670E080E090E00E941F0286E694E00B
:1028C0000E940B0A45E062E086E694E00E946809F7
:1028D00041E061E086E694E00E94680964E670E009
:1028E00080E090E00E941F0286E694E00E940B0ABE
:1028F00041E062E086E694E00E94680941E261E01E
:1029000086E694E00E94680964E670E080E090E06A
:102910000E941F0286E694E00E940B0A41E661E0F5
:1029200086E694E00E94680964E670E080E090E04A
:102930000E941F0286E694E00E940B0A42E661E0D4
:1029400086E694E00E94680964E670E080E090E02A
:102950000E941F0286E694E00E940B0A42E461E0B6
:1029600086E694E00E94680940E162E086E694E031
:102970000E94680964E670E080E090E00E941F0217
:1029800086E694E00E940B0A115009F057CF1A8294
:10299000198260E08E010F5F1F4FC8010E94B70BC4
:1029A00081E0898380E2E9E1F1E0DE01AD57BF4FCC
:1029B00001900D928A95E1F7AE014D575F4F20E0EF
:1029C00030E8DA018D91AD01E82FF0E0DF01AA0FC8
:1029D000BB1FAA0FBB1FA00FB11F11962C931197FD
:1029E00060E2620F12966C9312973196EE0FFF1F02
:1029F000EE0FFF1FE00FF11F108213963C932F5F25
:102A00002032F9F681E0CE57DF4F8883C258D0409C
:102A1000AA24BB24A01AB10AB5E0DB2E4801B2E813
:102A20008B0E911C7801F70161917F01C5018E0F1A
:102A30009F1FCD55DF4F99838883C35AD040CE0165
:102A40008D559F4F0E94B70B8E149F0461F7DA9447
:102A5000F2E8AF0EB11CD110E5CF8DEF93E0CD556C
:102A6000DF4F99838883C35AD04063E0CE018D55F0
:102A70009F4F0E94B70B8EEF93E0CD55DF4F9983A8
:102A80008883C35AD04065E0CE018D559F4F0E9488
:102A9000B70B8FEF93E0CD55DF4F99838883C35AEF
:102AA000D04060E0CE018D559F4F0E94B70B90E063
:102AB00080E00E9428210E94470B8FE999E09093C3
:102AC000E8058093E7058CEF99E090937904809373
:102AD000780480ED9BE09093FA058093F9058CE4EF
:102AE0009BE09093F4058093F30590938504809385
:102AF0008404E0911106F091120615821482168664
:102B000015861486138610921306109215061092DD
:102B1000140610921C0610921B0610921A061092B0
:102B200019060FEF1FEF10931E0600931D0610935A
:102B3000200600931F060E9451026093A90670931D
:102B4000AA068093AB069093AC061092A60610924C
:102B50002306109222061092240610922506109247
:102B6000A8061092A70680912106817082608E7F50
:102B700080932106E091A204F091A3040190F081DA
:102B8000E02DA089B18982E08C93A485B5851C9243
:102B9000A685B7858FE38C93108EA489B58986E0CE
:102BA0008C93A289B3898C9180618C93A289B3891B
:102BB0008C9188608C93A289B3898C9180688C9366
:102BC0000288F389E02D80818F7D80831092A40498
:102BD0001092A6041092A5041092AD041092AC04B9
:102BE0001092AB041092AA041093AF040093AE04A9
:102BF0001093B1040093B0040E94510260933A050F
:102C000070933B0580933C0590933D0510923705EA
:102C10001092B4041092B3041092B5041092B6044A
:102C200010923905109238058091B204817082604B
:102C300081608093B20483E0809321066EEF8091DF
:102C40001106909112060E94AB08882369F06EEF7E
:102C500080911106909112060E943F088091110602
:102C6000909112060E9414086EEF82EA94E00E948E
:102C7000FA0715E041E061E086E694E00E94680909
:102C800048E062E086E694E00E94680960EA70E04D
:102C900080E090E00E941F0286E694E00E940B0A0A
:102CA00040E461E086E694E00E94680941E062E069
:102CB00086E694E00E94680960EA70E080E090E0B7
:102CC0000E941F0286E694E00E940B0A48E061E041
:102CD00086E694E00E94680940E462E086E694E0BB
:102CE0000E94680960EA70E080E090E00E941F02A4
:102CF00086E694E00E940B0A115009F0BBCF0E94B7
:102D0000510260936E0470936F04809370049093EB
:102D10007104F2E04F2E512CAA24A394B12C7EEB27
:102D2000C72E71E0D72EE7E4EE2EE3E0FE2E312C25
:102D3000212C02E714E0712C612CB101062C02C099
:102D4000759567950A94E2F76170D8018D918D01B0
:102D50000E949001BFEF6B1A7B0AE4E06E167104CB
:102D600061F781E090E0FFE0F21510F090E080E084
:102D70008E589B4FDC011496EC91E23108F0E25141
:102D8000F0E0EA5EFE4FE49190917B008E2F880F79
:102D9000880F80729F7D892B80937B00E770E064B1
:102DA000E0937C0080917A00806480937A00809127
:102DB0007A0086FDFCCF8091780060917900762FB3
:102DC000682F90E080E00E942D202DEC3CEC4CEC34
:102DD0005EE30E946A203B014C01F6016081718133
:102DE00090E080E00E942D202AE939E949E15FE383
:102DF0000E946A209B01AC01C401B3010E9407221A
:102E00000E947322D60111967C936E9312962D9197
:102E10003C912617370761F19B01AFEFBFE30E949A
:102E2000D1212DEF33E040E050E00E9470214901B4
:102E3000880C892C881C99089194F7018481811150
:102E400090C030E03595279503810F778FEF800F85
:102E5000803108F07EC0482D628181810E94EC0A99
:102E6000D6018D919C91119713969C938E931297F6
:102E7000BFEF2B1A3B0AE4E0CE0ED11CF4E0EF0EBC
:102E8000F11C20E22216310409F053CF1091A40462
:102E9000113108F0C2C0E091A204F091A304808136
:102EA0009181DC01ED91FC910084F185E02D099583
:102EB000892B09F4B2C0809147058E7F8093470526
:102EC000E091A204F091A30480819181DC01ED9155
:102ED000FC910284F385E02D0995082F8D3F09F4BC
:102EE0009CC08091AC049091AD04009709F017C28A
:102EF0000093A704F090A5048F2D0E94E6060E947F
:102F0000F406882351F007FD08C0F092A70400934F
:102F1000A804B092AD04A092AC040091A704802F45
:102F20000E94E606813F09F4C6C108F05BC1803B00
:102F300049F008F054C0803929F0803A19F08038FF
:102F400009F055C0E3E0F0E0F093AB04E093AA048D
:102F5000B6C1011185CF00914703482D628181815F
:102F60007DCF70904703028111811F77272D412F5C
:102F700063E680EB0E94CD07272D412F63E680EBAF
:102F80000E94D7080F77272D402F62E680EB0E9422
:102F9000CD07272D402F62E680EB0E94D708272D12
:102FA000482D66E080EB0E94CD07272D482D66E076
:102FB00080EB0E94D7088091C803882361F0272DF9
:102FC000482D66E280EB0E94CD07272D482D66E252
:102FD00080EB0E94D70881E00E948E0941CF803D9E
:102FE00009F469C108F0EDC0803C09F464C1809126
:102FF0004705816080934705E0917A04F0917B0456
:10300000309709F009951092AD041092AC0410921B
:10301000AB041092AA041092A504D090130630E1DC
:103020003D1540F1E0901106F0901206D7011B9675
:103030008D919C91892B09F4CEC28091B6068E7F2A
:103040008093B606E0911106F0911206858596856B
:103050009C012F5F3F4F368725878E0F9F1FDC0116
:1030600017960C91838594850197948783870D3FEC
:1030700009F0E6C38EE494E00E94850686E394E0BE
:103080000E94850680915A0490915B04019759F43F
:1030900080915C0490915D04892B29F481E08093F8
:1030A000CB030E945D0280914204909143040197FA
:1030B00059F48091440490914504892B29F481E0CE
:1030C0008093CA030E945D0280915A0490915B0430
:1030D000892B49F480915C0490915D04019719F467
:1030E00081E00E94520B8091420490914304892B0D
:1030F00049F48091440490914504019719F480E0CB
:103100000E94520B0091CB03011104C08091CA03AD
:10311000882399F10E945102C090D503D090D60324
:10312000E090D703F090D8036C197D098E099F09B0
:103130006D3F73408105910500F1002399F01092D5
:10314000C9036091470370E090E080E00E94240A88
:103150000E94510260936E0470936F048093700418
:10316000909371048091CA03882339F081E08093A1
:10317000C903809146030E94A50A0E945102C09093
:103180006E04D0906F04E0907004F09071046C199C
:103190007D098E099F09663971058105910520F029
:1031A00086E694E00E940B0A80E090E0892B09F407
:1031B000B6CD0E940F05882309F4B1CD0E9400000E
:1031C000AECD803E09F4BECE803F09F010CF20E89E
:1031D00030E03093AB042093AA041092A5048093AE
:1031E000B7046DC0873F99F308F05EC0833F09F4D0
:1031F00062C008F4A7CE863F09F0F9CE8093B404EC
:103200001092B3041092B5041092B60481E080933A
:1032100037051092AD041092AC041092AB041092DA
:10322000AA048091B404803939F48091B6048111E4
:1032300003C0A0E8A093B4048091B4048058813600
:1032400030F48091B304181711F0111104C088E70D
:1032500094E00E9403079091B204392F317090FFDF
:10326000DCCE892F8E7F09F4D8CE8091B40420E87B
:10327000280F213608F02BC12091B304121719F042
:1032800031E0111130E09695923009F419C1933074
:1032900009F41AC1913009F0C0CE4091B604609192
:1032A000B5040E940808B9CE8D3F08F4A7CF8E3F21
:1032B00008F0A4CF9CCE5092AB044092AA04209177
:1032C000AC043091AD044091AA045091AB0441503C
:1032D000510924173507E0F08093B4040F700F5F95
:1032E0000093B3048091A8048093B5041092B604AF
:1032F000B0923905A09238051092AD041092AC043A
:103300001092AB041092AA0481E08093370589CF14
:103310002F5F3F4F3093AD042093AC047ECE07FF68
:103320000CC00D3F08F04CC0083F08F04CC0003FF7
:1033300009F456C0073F09F453C02091A704FC01CB
:10334000E858FB4F203F19F0273F09F073C007AF43
:10335000E090AA04F090AB04970121503109821744
:10336000930708F4A7C0C090A704E0EFCE1619F0A9
:10337000F7EFCF1261C00091360520EF209336059C
:103380002093B40430E83093B5041092B604109240
:10339000B30480E890E0909339058093380581E08C
:1033A0008093370588E794E00E94030787EF8093B6
:1033B000B7040093B8045092AD044092AC042DCEF3
:1033C0000E3F08F4BACF0093B4041092B5041092E3
:1033D000B6041092B304B0923905A092380594CF88
:1033E0002091B704203F19F0273F09F000CE9C013F
:1033F0002F5F3F4F88589B4FDC01DF960C93B0EF57
:10340000B093B4042093B5043093B6041092B3047F
:10341000309339052093380581E080933705109269
:10342000AD041092AC041092AB041092AA04109256
:10343000A504F7CE07A78CCF8C2D0E94E606082F97
:103440008093B4040E94F406882349F18C2D8F7078
:103450008F5F8093B3048091A8048093B50480911A
:10346000A90493E0E916F10409F080E08093B60422
:103470001092AD041092AC041092AB041092AA0406
:1034800081E080933705003B39F060F4003921F08A
:10349000003A11F0003859F6C092A504C2CE10923D
:1034A000B304D9CF003DC1F3003EB1F3003C09F0B5
:1034B000BECFF2CF01969093AD048093AC04ADCD16
:1034C000332309F4AACDE9CE3111A7CDE6CEE0E150
:1034D000E80FE03108F0A1CDF0E0EF58F54E0C9484
:1034E0000022871AD71AB81AA61A0D180D18811AB1
:1034F0000D18811A0D18811A811A811A0D18811A56
:10350000811A682F82EA94E00E94FA0786CDC09063
:10351000B504D090B604B1E8CB16D10418F040E859
:10352000C42ED12C08E714E0C801885794408C15AC
:103530009D0508F072CDF80167AD8091A2049091CD
:10354000A3040E94C3070F5F1F4FEECF0091B50485
:1035500063EF8091A2049091A3040E94C307602F9F
:103560006F778091A2049091A3040E94C30755CD68
:10357000E090B604F0E8EF9E700111248091B5044C
:10358000E82A62EF8091A2049091A3040E94C307ED
:103590006E2D6F778091A2049091A3040E94C307BF
:1035A000B701660F672F661F770B7195D9CF6091B2
:1035B000B50420E1629FB001112460770091B60448
:1035C0000F70062B61EF8091A2049091A3040E94DA
:1035D000C307602FC6CFF7011686158680913E037C
:1035E00090913F03A0914003B09141034091420369
:1035F000509143036091440370914503841B950BE4
:10360000A60BB70B8F739927AA27BB27892B8A2B69
:103610008B2B09F47DC08091420390914303A091CC
:103620004403B0914503880F991F880F991FFC012F
:10363000E25CFD4F808191814281538100913E0384
:1036400010913F0320914003309141036090420369
:10365000709043038090440390904503061517052E
:1036600028053905D1F060904203709043038090A3
:10367000440390904503FFEF6F1A7F0A8F0A9F0A59
:103680002FE3622277248824992460924203709267
:1036900043038092440390924503D7011F968C9375
:1036A0001F9750969C93509751964C9351975296D2
:1036B0005C935297882329F1282F30E014E0359548
:1036C00027951A95E1F753966C9153976217130655
:1036D00009F0D0CC8F70682F70E01B962D913C9133
:1036E000FB01EE0FFF1FE75BFE4FE181E13009F4C4
:1036F0008AC008F472C0E23009F495C0E33009F4DE
:1037000071C0F70183859485892B09F4B3CC95CCDE
:1037100080912D040E943A0450E040E090E088231C
:1037200009F48CCF60903E0370903F03809040037B
:1037300090904103FFEF6F1A7F0A8F0A9F0A2FE3D1
:103740006222772488249924809142039091430334
:10375000A0914403B091450386159705A805B905C6
:1037600009F459CF80912D040E943A0444E050E0BE
:10377000BE016F5F7F4F80912D040E94C6030497A6
:103780000CF449CF80913E0390913F03A0914003F8
:10379000B0914103880F991F880F991F825C9D4F3C
:1037A00049815A816B817C81DC014D935D936D93DE
:1037B0007C93139760923E0370923F038092400384
:1037C00090924103BFEF6B1A7B0A8B0A9B0AEFE3CF
:1037D0006E22772488249924B7CF843019F067307B
:1037E000710571F4F701E20FF31F978340872D5F96
:1037F0003F4FD7011C963C932E931B97518781CF47
:103800006530710561F4A9014F5F5F4FF70154877F
:1038100043872E0D3F1DD90117969C9372CF6630BA
:10382000710509F06ECFF701E20FF31F97832E5F4A
:103830003F4FD7011C963C932E931B97408761CF37
:1038400080911B0690911C06009709F0F6C000932A
:103850001606F09014068F2D0E94E6060E94F406CC
:10386000882351F007FD08C0F09216060093170652
:10387000B0921C06A0921B0600911606802F0E9493
:10388000E606813F09F4A5C0E8F5803B39F068F40D
:10389000803921F0803A11F0803871F423E030E073
:1038A00030931A062093190698C0803D09F491C000
:1038B000D0F4803C09F48DC08091B606816080937D
:1038C000B606E091E905F091EA05309709F009950F
:1038D00010921C0610921B0610921A0610921906DE
:1038E00010921406C7CB803EC9F2803F29F7A0E8AA
:1038F000B0E0B0931A06A0931906109214068093B4
:1039000026066BC0873F99F308F05CC0833F09F43B
:1039100060C020F2863F81F6809323061092220633
:10392000109224061092250681E08093A60610923C
:103930001C0610921B0610921A061092190680910E
:103940002306803939F480912506811103C0E0E80F
:10395000E0932306809123068058813630F48091CD
:103960002206D81611F0D11004C087EE95E00E940F
:10397000030790912106392F317090FF7BCB892F5F
:103980008E7F09F477CB8091230620E8280F21361B
:1039900008F02AC120912206D21619F031E0D11088
:1039A00030E09695923009F418C1933009F419C1AA
:1039B000913009F05FCB40912506609124060E946A
:1039C0003D0958CB8D3F08F4A7CF8E3F08F0A4CF18
:1039D00073CF50921A064092190620911B0630911F
:1039E0001C064091190650911A064150510924179E
:1039F0003507E0F0809323060F700F5F00932206D7
:103A0000809117068093240610922506B092A8068E
:103A1000A092A70610921C0610921B0610921A067E
:103A20001092190681E08093A60689CF2F5F3F4F41
:103A300030931C0620931B061DCB07FF0CC00D3FC7
:103A400008F04CC0083F08F04CC0003F09F456C0D5
:103A5000073F09F453C020911606FC01E951FA4FC3
:103A6000203F19F0273F09F072C007AFE090190618
:103A7000F0901A069701215031098217930708F434
:103A8000A6C0C090160620EFC21619F037EFC31279
:103A900060C00091A50680EF8093A5068093230661
:103AA00090E8909324061092250610922206A0E832
:103AB000B0E0B093A806A093A70681E08093A60685
:103AC00087EE95E00E94030787EF80932606009318
:103AD000270650921C0640921B06CCCA0E3F08F4E3
:103AE000BACF009323061092240610922506109256
:103AF0002206B092A806A092A70694CF209126068F
:103B0000203F19F0273F09F0D7CE9C012F5F3F4F90
:103B100089519A4FFC0107AFF0EFF09323062093F1
:103B2000240630932506109222063093A80620938F
:103B3000A70681E08093A60610921C0610921B0631
:103B400010921A061092190610921406F8CE07A7C2
:103B50008DCF8C2D0E94E606082F809323060E94AD
:103B6000F406882349F18C2D8F708F5F8093220695
:103B7000809117068093240680911806B3E0EB1617
:103B8000F10409F080E08093250610921C06109243
:103B90001B0610921A061092190681E08093A60661
:103BA000003B39F060F4003921F0003A11F00038A0
:103BB00059F6C0921406C3CE10922206D9CF003D0A
:103BC000C1F3003EB1F3003C09F0BECFF2CF019645
:103BD00090931C0680931B064DCA332309F44ACAEE
:103BE000EACE311147CAE7CEE0E1E80FE03108F054
:103BF00041CAF0E0E250F24E0C940022141E8B1EDB
:103C0000621E401E3A183A180E1E3A180E1E3A1836
:103C10000E1E0E1E0E1E3A180E1E0E1E682F81E17D
:103C200096E00E94170926CAC0902406D090250667
:103C3000F1E8CF16D10418F020E8C22ED12C60EFA5
:103C400080911106909112060E94AB08882309F416
:103C500011CA97EEE92E95E0F92E80911106909108
:103C600012069701275E35402C153D0540F5D7011A
:103C7000DF966C910E943F08BFEFEB1AFB0AEDCF75
:103C80000091240663EF80911106909112060E9424
:103C9000AB08882309F4EEC963EF80911106909177
:103CA00012060E943F08602F6F7780911106909155
:103CB00012060E943F0880911106909112060E9400
:103CC0001408D8C900912406E090250662EF80917F
:103CD0001106909112060E94AB08882309F4CAC904
:103CE000E0E8EE9E70011124E02A62EF8091110657
:103CF000909112060E943F086E2D6F7780911106F9
:103D0000909112060E943F08B701660F672F661F49
:103D1000770B7195C9CFF09025060091240661EFCD
:103D200080911106909112060E94AB08882309F435
:103D3000A1C961EF80911106909112060E943F087F
:103D4000F0E10F9FB001112460772F2D2F70622BAF
:103D5000ACCF61E081E10E94900164E170E080E01D
:103D600090E00E941F0260E081E10E94900110E05B
:103D700000E060E0C8010E9430210F5F1F4F011575
:103D8000E4E01E07B1F761E081E10E9490010C942C
:103D9000EF13B0E0A0E0EFECFEE10C949B215C019E
:103DA0006B017A016115710519F0FB019183808324
:103DB000E114F10451F0C7010297839730F040E01D
:103DC00030E020E090E072C05E01E5012196F5014F
:103DD0001081812F90E00E94E01F892BA9F71D32EE
:103DE00001F52196F501118101E0E114F10409F4D6
:103DF000DAC0F0E1EF16F10409F082C0103359F493
:103E000088818F7D883509F076C0198122960260FD
:103E1000F0E1EF2EF12C812C912CA12C88E0B82E12
:103E20008CC01B3221F4E5012296F501118100E0DE
:103E3000DCCFEAE0EE16F10409F4BBC0F0E1EF16C6
:103E4000F10409F06DC0E7CF78E0E72EF12C812C6A
:103E5000912CA12C60E1B62E70C03FE9310F3A31B0
:103E600028F439EA332E80C021E09AC0302F317017
:103E7000C114D10431F0222309F12197F601D18335
:103E8000C08327FF21C060E070E080E090E831113E
:103E900004C06FEF7FEF8FEF9FE722E230E03093B7
:103EA000CC062093CB06462F372F282F642F732F55
:103EB000822FCDB7DEB7E1E10C94B72101FF04C03A
:103EC0002297F601D183C083332341F090958095EA
:103ED000709561957F4F8F4F9F4FE5CF97FFE3CF51
:103EE00082E290E09093CC068093CB066FEF7FEF59
:103EF0008FEF9FE7D8CF10E3E114F10409F4A4CFCA
:103F000028E0E216F10409F4A2CF0CF092CF812C44
:103F1000912CA12CE0E4BE2E82E0E816F10469F0B9
:103F200060E070E080E090E897010F2C000C440BFB
:103F3000550B0E944E2149015A0120E060E070E0DB
:103F4000CB0127010F2C000C66087708FE0150ED0D
:103F5000352E310E39E0331540F43FEB310F3A3155
:103F600008F07BCF49EC342E310E3E141F040CF0C8
:103F70007DCF27FD15C086169706A806B90678F0EE
:103F8000A30192010E943E21630D711D811D911DAF
:103F900061307105810520E8920708F465CF2FEFA5
:103FA00021961081D3CF103309F42ACF2AE0E22ED4
:103FB000F12C9CEC892E982CA82C9CE0B92EBDCF1E
:103FC00091110C941A20803219F089508550C8F74D
:103FD0000895BB272A3051F4992342F4BDE290950D
:103FE0008095709561957F4F8F4F9F4F0C94F91F6F
:103FF000BB27FA01A62F6217710581059105330BC6
:1040000030FB66F0AA27660F771F881F991FAA1F2B
:10401000A21710F0A21B63953850A9F7A05DAA3330
:1040200008F0A95DA19336F7B111B1931082CA01CE
:104030000C941D20992788270895DC01FC01672F27
:1040400071917723E1F7329704C07C916D9370836F
:104050006291AE17BF07C8F30895E89409C097FBB3
:104060003EF490958095709561957F4F8F4F9F4F4F
:104070009923A9F0F92F96E9BB279395F695879593
:1040800077956795B795F111F8CFFAF4BB0F11F456
:1040900060FF1BC06F5F7F4F8F4F9F4F16C08823FD
:1040A00011F096E911C0772321F09EE8872F762F33
:1040B00005C0662371F096E8862F70E060E02AF074
:1040C0009A95660F771F881FDAF7880F9695879560
:1040D00097F908950E947D200C94EE200E94E02024
:1040E00038F00E94E72020F0952311F00C94D7209F
:1040F0000C94DD2011240C9422210E94FF2070F3E7
:10410000959FC1F3950F50E0551F629FF001729F7C
:10411000BB27F00DB11D639FAA27F00DB11DAA1F8B
:10412000649F6627B00DA11D661F829F2227B00DD8
:10413000A11D621F739FB00DA11D621F839FA00D63
:10414000611D221F749F3327A00D611D231F849FB3
:10415000600D211D822F762F6A2F11249F5750400A
:104160009AF0F1F088234AF0EE0FFF1FBB1F661F85
:10417000771F881F91505040A9F79E3F510580F04E
:104180000C94D7200C9422215F3FE4F3983ED4F3A3
:10419000869577956795B795F795E7959F5FC1F7F2
:1041A000FE2B880F911D9695879597F9089597F99D
:1041B0009F6780E870E060E008959FEF80EC0895CD
:1041C00000240A94161617061806090608950024F6
:1041D0000A9412161306140605060895092E039470
:1041E000000C11F4882352F0BB0F40F4BF2B11F4E4
:1041F00060FF04C06F5F7F4F8F4F9F4F089557FD43
:104200009058440F551F59F05F3F71F04795880F44
:1042100097FB991F61F09F3F79F0879508951216DB
:1042200013061406551FF2CF4695F1DF08C0161687
:1042300017061806991FF1CF869571056105089438
:104240000895E894BB2766277727CB0197F908954F
:10425000F999FECF92BD81BDF89A992780B508954E
:10426000262FF999FECF1FBA92BD81BD20BD0FB692
:10427000F894FA9AF99A0FBE01960895DB018F938C
:104280009F930E948F21BF91AF91A29F800D911D9E
:10429000A39F900DB29F900D11240895A1E21A2EB4
:1042A000AA1BBB1BFD010DC0AA1FBB1FEE1FFF1FDA
:1042B000A217B307E407F50720F0A21BB30BE40B2A
:1042C000F50B661F771F881F991F1A9469F7609571
:1042D0007095809590959B01AC01BD01CF0108952B
:1042E000052E97FB1EF400940E94872157FD07D0EE
:1042F0000E944E2107FC03D04EF40C948721509568
:104300004095309521953F4F4F4F5F4F08959095C1
:104310008095709561957F4F8F4F9F4F08950E94B4
:10432000D121A59F900DB49F900DA49F800D911D4C
:10433000112408952F923F924F925F926F927F9235
:104340008F929F92AF92BF92CF92DF92EF92FF92A5
:104350000F931F93CF93DF93CDB7DEB7CA1BDB0B51
:104360000FB6F894DEBF0FBECDBF09942A883988F6
:1043700048885F846E847D848C849B84AA84B984FD
:10438000C884DF80EE80FD800C811B81AA81B98109
:10439000CE0FD11D0FB6F894DEBF0FBECDBFED011D
:1043A0000895A29FB001B39FC001A39F700D811D0E
:1043B0001124911DB29F700D811D1124911D08952E
:1043C000991B79E004C0991F961708F0961B881F67
:1043D0007A95C9F780950895AA1BBB1B51E107C0C8
:1043E000AA1FBB1FA617B70710F0A61BB70B881F85
:1043F000991F5A95A9F780959095BC01CD01089514
:10440000EE0FFF1F0590F491E02D09945058BB2743
:10441000AA270E941E220C94EE200E94E02038F071
:104420000E94E72020F039F49F3F19F426F40C9401
:10443000DD200EF4E095E7FB0C94D720E92F0E94D5
:10444000FF2058F3BA17620773078407950720F017
:1044500079F4A6F50C9421210EF4E0950B2EBA2FD9
:10446000A02D0B01B90190010C01CA01A00111247A
:10447000FF27591B99F0593F50F4503E68F11A1626
:10448000F040A22F232F342F4427585FF3CF4695B7
:1044900037952795A795F0405395C9F77EF41F16D9
:1044A000BA0B620B730B840BBAF09150A1F0FF0FA3
:1044B000BB1F661F771F881FC2F70EC0BA0F621F8F
:1044C000731F841F48F4879577956795B795F7957F
:1044D0009E3F08F0B0CF9395880F08F09927EE0F14
:1044E0009795879508950E94072188F09F5798F027
:1044F000B92F9927B751B0F0E1F0660F771F881FE9
:10450000991F1AF0BA95C9F714C0B13091F00E9402
:104510002121B1E008950C942121672F782F88275D
:10452000B85F39F0B93FCCF3869577956795B39529
:10453000D9F73EF490958095709561957F4F8F4F98
:104540009F4F08950F931F93CF93DF938230910570
:1045500010F482E090E0E091CF06F091D00630E0D8
:1045600020E0B0E0A0E0309799F42115310509F47E
:104570004AC0281B390B24303105D8F58A819B812C
:104580006115710589F1FB0193838283FE0111C0DE
:10459000408151810281138148175907E0F0481783
:1045A000590799F4109761F012960C93129713968D
:1045B0001C933296CF01DF91CF911F910F910895F7
:1045C0000093CF061093D006F4CF2115310551F09A
:1045D0004217530738F0A901DB019A01BD01DF0141
:1045E000F801C1CFEF01F9CF9093D0068093CF06A9
:1045F000CDCFFE01E20FF31F819391932250310939
:1046000039832883D7CF2091CD063091CE06232B36
:1046100041F420911501309116013093CE0620937C
:10462000CD0620911301309114012115310541F47B
:104630002DB73EB74091170150911801241B350B3F
:10464000E091CD06F091CE06E217F307A0F42E1B01
:104650003F0B2817390778F0AC014E5F5F4F2417E6
:10466000350748F04E0F5F1F5093CE064093CD069E
:10467000819391939FCFF0E0E0E09CCFCF93DF93C5
:104680000097E9F0FC01329713821282A091CF06C5
:10469000B091D006ED0130E020E01097A1F4208128
:1046A0003181820F931F2091CD063091CE062817BD
:1046B000390709F061C0F093CE06E093CD06DF9193
:1046C000CF910895EA01CE17DF07E8F54A815B81B3
:1046D0009E0141155105B1F7E901FB83EA83499138
:1046E0005991C40FD51FEC17FD0761F480819181AA
:1046F0000296840F951FE9019983888382819381B3
:104700009B838A83F0E0E0E012968D919C91139751
:104710000097B9F52D913C911197CD010296820F2A
:10472000931F2091CD063091CE062817390739F610
:10473000309751F51092D0061092CF06B093CE0666
:10474000A093CD06BCCFD383C28340815181840F17
:10475000951FC817D90761F44E5F5F4F8881998113
:10476000480F591F518340838A819B8193838283A1
:104770002115310509F0B0CFF093D006E093CF06B4
:104780009ECFFD01DC01C0CF13821282D7CFB0E0F3
:10479000A0E0EDECF3E20C949C218C01009751F425
:1047A000CB010E94A2228C01C801CDB7DEB7E0E1A7
:1047B0000C94B821FC01E60FF71F9C01225031092F
:1047C000E217F30708F49DC0D901CD91DC91119750
:1047D000C617D70798F0C530D10530F3CE0104973E
:1047E0008617970708F3C61BD70B2297C193D1935F
:1047F0006D937C93CF010E943E23D6CF5B01AC1A10
:10480000BD0A4C018C0E9D1EA091CF06B091D00622
:10481000512C412CF12CE12C109731F58091CD06D3
:104820009091CE068815990509F05CC0461657068A
:1048300008F058C08091130190911401009741F441
:104840008DB79EB74091170150911801841B950BAD
:10485000E817F90708F055C0F093CE06E093CD06AF
:10486000F90171836083A0CF8D919C91119712966D
:104870006C90129713967C901397A815B90559F56B
:104880006C0142E0C40ED11CCA14DB0420F1AC015F
:104890004A195B09DA011296159780F062827382D9
:1048A00051834083D9016D937C93E114F10471F03D
:1048B000D7011396FC93EE93129776CF22968C0F26
:1048C0009D1FF90191838083F301EFCFF093D00610
:1048D000E093CF0669CF4816590608F42C017D01F4
:1048E000D3019ACFCB010E94A2227C01009749F00C
:1048F000AE01B8010E948424C8010E943E238701B2
:1049000053CF10E000E050CFFB01DC0102C001906A
:104910000D9241505040D8F70895FB01DC01019001
:0C4920000D920020E1F70895F894FFCFFD
:10492C00FFFFFFFF00E100000000000000C18081DC
:10493C000000000000D10680000F0E0C091F181497
:10494C00100D0B0A021E191511080704011D1A1669
:10495C0012060503001C1B1713000080089009A009
:10496C000AB00BC00CD00DE00E00000100020203D7
:10497C00030400050006000700080309030A030BE3
:10498C00030C020D020E030F017E306D79335B5F59
:10499C00707F7B000000000501B003110376024319
:1049AC00041804F0030000000044056004D20490D5
:1049BC00050305E104F50400000000B305B505B0DE
:0849CC0005F90C4D49444900B6
:00000001FF
